:100000000C945D000C9492020C946B020C9485008D
:100010000C9485000C9485000C9485000C9485004C
:100020000C9485000C9485000C9485000C9485003C
:100030000C9485000C9485000C9485000C9485002C
:100040000C9421020C9485000C94EF010C94C901CE
:100050000C9485000C9485000C9485000C9485000C
:100060000C9485000C9485000000000024002700FB
:100070002A0000000000250028002B0004040404CE
:100080000404040402020202020203030303030342
:10009000010204081020408001020408102001021F
:1000A00004081020000000080002010000030407FB
:1000B0000000000000000000D60311241FBECFEF97
:1000C000D8E0DEBFCDBF11E0A0E0B1E0E6E1F8E0AE
:1000D00002C005900D92A631B107D9F721E0A6E143
:1000E000B1E001C01D92A13CB207E1F710E0CDE5FF
:1000F000D0E004C02197FE010E940304CC35D10753
:10010000C9F70E94B9020C9409040C940000AF9244
:10011000BF92CF92DF92EF92FF920F931F93CF93F4
:10012000DF936C017B018B01040F151FEB015E0156
:10013000AE18BF08C017D10759F06991D601ED91EB
:10014000FC910190F081E02DC6010995892B79F78A
:10015000C501DF91CF911F910F91FF90EF90DF903C
:10016000CF90BF90AF900895FC01538D448D252F03
:1001700030E0842F90E0821B930B541710F0CF9641
:10018000089501970895FC01918D828D981761F073
:10019000A28DAE0FBF2FB11D5D968C91928D9F5F8A
:1001A0009F73928F90E008958FEF9FEF0895FC0169
:1001B000918D828D981731F0828DE80FF11D858D1C
:1001C00090E008958FEF9FEF0895FC01918D228DAF
:1001D000892F90E0805C9F4F821B91098F73992734
:1001E000089583E291E00E94E50021E0892B09F463
:1001F00020E0822F089580E090E0892B29F00E9472
:10020000F10081110C9400000895FC01A48DA80F49
:10021000B92FB11DA35ABF4F2C91848D90E0019648
:100220008F739927848FA689B7892C93A089B18968
:100230008C91837080648C93938D848D981306C009
:100240000288F389E02D80818F7D80830895EF926D
:10025000FF920F931F93CF93DF93EC0181E0888F80
:100260009B8D8C8D98131AC0E889F989808185FF50
:1002700015C09FB7F894EE89FF896083E889F989F2
:1002800080818370806480839FBF81E090E0DF91F4
:10029000CF911F910F91FF90EF900895F62E0B8D47
:1002A00010E00F5F1F4F0F731127E02E8C8D8E1102
:1002B0000CC00FB607FCFACFE889F989808185FF69
:1002C000F5CFCE010E940501F1CFEB8DEC0FFD2F94
:1002D000F11DE35AFF4FF0829FB7F8940B8FEA8924
:1002E000FB8980818062CFCFCF93DF93EC01888D33
:1002F0008823B9F0AA89BB89E889F9898C9185FDA1
:1003000003C0808186FD0DC00FB607FCF7CF8C912E
:1003100085FFF2CF808185FFEDCFCE010E940501E0
:10032000E9CFDF91CF91089508950F931F932FB7D1
:10033000F89480911F0190912001A0912101B0912A
:1003400022012FBF409116015091170160911801B1
:10035000709119018C019D01041B150B260B370BA5
:10036000B901A801463051056105710538F021E059
:100370003091C001311120E02093C001809316011B
:1003800090931701A0931801B09319011F910F9139
:1003900008951F920F920FB60F9211242F933F933F
:1003A0004F935F936F937F938F939F93AF93BF937D
:1003B000EF93FF9383E291E00E940501FF91EF919B
:1003C000BF91AF919F918F917F916F915F914F916D
:1003D0003F912F910F900FBE0F901F9018951F9275
:1003E0000F920FB60F9211242F938F939F93EF9339
:1003F000FF93E0913301F09134018081E091390164
:10040000F0913A0182FD1BC0908180913C018F5F89
:100410008F7320913D01821741F0E0913C01F0E0A3
:10042000ED5DFE4F958F80933C01FF91EF919F9181
:100430008F912F910F900FBE0F901F901895808174
:10044000F4CF1F920F920FB60F9211242F933F9368
:100450008F939F93AF93BF9380911F019091200141
:10046000A0912101B091220130911E0123E0230FC0
:100470002D3758F50196A11DB11D20931E018093C3
:100480001F0190932001A0932101B093220180913C
:100490001A0190911B01A0911C01B0911D010196C0
:1004A000A11DB11D80931A0190931B01A0931C0103
:1004B000B0931D01BF91AF919F918F913F912F916B
:1004C0000F900FBE0F901F90189526E8230F0296ED
:1004D000A11DB11DD2CF1F920F920FB60F92112402
:1004E0002F933F934F935F936F937F938F939F933C
:1004F000AF93BF93EF93FF93E0910201F09103015B
:100500000995FF91EF91BF91AF919F918F917F914D
:100510006F915F914F913F912F910F900FBE0F9070
:100520001F9018951F920F920FB60F9211242F93C0
:100530003F934F935F936F937F938F939F93AF936B
:10054000BF93EF93FF93E0910001F09101010995B2
:10055000FF91EF91BF91AF919F918F917F916F919B
:100560005F914F913F912F910F900FBE0F901F9071
:100570001895789484B5826084BD84B5816084BD0B
:1005800085B5826085BD85B5816085BD80916E0031
:10059000816080936E001092810080918100826062
:1005A000809381008091810081608093810080919F
:1005B00080008160809380008091B100846080938E
:1005C000B1008091B00081608093B00080917A008A
:1005D000846080937A0080917A00826080937A00B0
:1005E00080917A00816080937A0080917A0080689F
:1005F00080937A001092C100C9E9D0E0FE012491F5
:1006000005E810E0F8018491882399F090E0880FC4
:10061000991FFC01E859FF4FA591B491FC01EE58D8
:10062000FF4F859194918FB7F8949C91292B2C932F
:100630008FBFE2E9F0E02491EEE7F0E084918823B7
:10064000C9F090E0880F991FFC01E859FF4FA59170
:10065000B491FC01EE58FF4F459154919FB7F89427
:100660008C91E22FE0958E238C93DA018C91E82314
:10067000EC939FBF85E991E0909301018093000185
:10068000809169008C7F826080936900E89AE09194
:100690003301F091340182E08083E0912F01F091E9
:1006A00030011082E0913101F09132018FEC8083B2
:1006B00010923B01E0913701F091380186E0808390
:1006C000E0913501F0913601808180618083E09175
:1006D0003501F0913601808188608083E091350199
:1006E000F0913601808180688083E0913501F0913E
:1006F000360180818F7D80832DEAE22E20E0F22E6C
:1007000030E0C32E30E0D32EF7019491FE018491A6
:10071000F80134913323E1F02091C001992339F09D
:10072000933051F1F8F4913069F1923079F1E32F7F
:10073000F0E0EE0FFF1FEE58FF4FA591B4919FB769
:10074000F894211130C02C91809582238C939FBF07
:10075000C114D104C9F20E94F1008823A9F20E94B9
:100760000000D2CF9730A9F09830C9F09430F9F654
:10077000909180009F7D03C0909180009F7790931F
:100780008000D5CF94B59F7794BDD1CF94B59F7D90
:10079000FBCF9091B0009F779093B000C8CF90911D
:1007A000B0009F7DF9CF2C91822BD0CFE3E2F1E016
:1007B0001382128288EE93E0A0E0B0E084839583F8
:1007C000A683B78388E091E09183808385EC90E0F5
:1007D0009587848784EC90E09787868780EC90E00B
:1007E000918B808B81EC90E0938B828B82EC90E0FC
:1007F000958B848B86EC90E0978B868B118E128E76
:10080000138E148E0895EE0FFF1F0590F491E02DC6
:060810000994F894FFCFEB
:10081600940194010000000027018700B4007401D0
:06082600E500C300D7004D
:00000001FF
